:020000020000FC
:1000000014C048C01895189583C0189518955EC0FF
:100010001895189518951895189518951895189578
:10002000189518951895189518951FED1DBF10E88F
:1000300018B910E816BD13E016BD1FEF1BBB18BBA7
:1000400012BB0ABA07BA01BA1CE019B910E012B91A
:100050001BB918E91AB916E013B98A98C298BA9A66
:100060001DE01EBD11E01BBD17EE1ABD23D110E42B
:1000700019BF12E015BF10E41BBF0024F0E0E2E05E
:100080001DE1112E1A9411F00192FCCFEE27C9D078
:100090007894FFCF95D0829918955030B1F04030C8
:1000A00049F0413059F0423069F0433019F04430A2
:1000B00009F0189562E078D041E0189563E074D0BB
:1000C00040E0189564E070D040E018951F936F935E
:1000D0006CB1201449F0101459F0162F107F101530
:1000E00099F4362E39D010C0613171F4262E09C032
:1000F000603151F4613141F0162F107F103121F43D
:10010000162E6F911F911895112422243324F9CFB4
:100110001F93AED0B8D0C3D0403051F0413071F011
:10012000423081F0433099F0F1E0E7E097D012C01F
:100130005AD050FD63D050FF5ED00CC0F1E0E1E03A
:100140008DD008C0F0E0EBEFB9D088D003C0F1E06B
:10015000E4E084D01F9118951F93132D113049F0BE
:100160005130D1F4123041F0133079F0143089F06D
:1001700013C051E0442410C0403029F0433019F03E
:10018000443009F00BC042E007C0423039F440E08F
:1001900003C0413019F443E01F91089544E0FCCFBF
:1001A0005D9BFECF6CB908956F9360E1F9DF61E16B
:1001B000F7DF6F91F5DF089500000000000008955B
:1001C0001F930F931CE30FEFF7DF0A95E9F70FEF8B
:1001D0001A95D1F70F911F910895F2DFF1DFF0DF4B
:1001E000EFDFEEDF089566D0BD98BF98BE98C59A40
:1001F000C79AC69A0895BD9AC5980895BE9AC6989A
:100200000895BF9AC7980895F6DFF8DF0895F3DFE1
:10021000F8DF0895F3DFF5DF0895EDDFEFDFF1DFBD
:10022000089516D0E8DF17D013D0E8DF14D010D02F
:10023000E8DF11D00DD0E8DF0ED00AD0E8DF0BD018
:1002400007D0E8DF08D004D0E8DF05D0CCDF089580
:10025000CADFC3DF089532D0C0DF08951F9317B3FC
:10026000107E103011F0BFDF75CF09951F910895F2
:100270001F934394142D143108F403C0442450E018
:1002800040E01F9108951F93433039F45394152D86
:10029000143108F402C0552440E01F9108951F93C3
:1002A0006394162D1A3008F403C0662461E07CDFE5
:1002B0001F91089500BE03BE06BE08951F9312E469
:0E02C00010BF12E013BF1DE716BF1F91089577
:00000001FF
