:020000020000FC
:1000000014C018951895189518951895189536C018
:100010001895189518951895189518951895189578
:10002000189518951895189518951FED1DBF10E88F
:1000300018B910E816BD13E016BD1FEF1BBB18BBA7
:1000400012BB0ABA07BA01BABF9ABD9A1AE21DB921
:1000500010EF1EB9C79AC59A10E215BF1CE019B976
:1000600010E012B91BB918E91AB916E013B960E02B
:1000700010E056D01ED078948895FECF1F936F93D2
:100080006CB114E04DD015D06F911F911895000000
:100090000000000008951F93C59AC79ABF9810EFFB
:1000A0001EB9C598F4DFBF9AC798C59AF0DF1F91B3
:1000B0000895C798ECDFC598EADFC79AE8DFC59ACC
:1000C000E6DF759A08951EB91BE2E1DF1DB9769B44
:1000D000FCCFDDDF6FB11FEF1FB9BD9A08951F93ED
:1000E0006FB910EFF0DFBD981EEFEDDF13D01F9159
:1000F00008951F93BD9810EFE6DF6F9300FF03C0D4
:100100001FEF1FB902C010E01FB91EEFDCDF6F91B7
:100110001F910895603011F0016008950E7F0895D9
:100120006F93B9DF61E0DBDF612FD9DF6F91D7DF3C
:0E01300008956F9108955D9BFECF6CB9089500
:00000001FF
