:020000020000FC
:100000003EC0189518951895189518951895189537
:10001000189518951895189518951895189505C060
:10002000189518951895189518951F934AD0472F2D
:1000300050D047D0572F4DD044D0672F4130C9F40E
:10004000503049F0513051F0523059F0533061F096
:10005000543069F00EC0162F98D00BC0162F09D15E
:1000600008C0162F7AD105C0162FEBD102C0162F6B
:1000700061D210EF1EB918EA1DB91F9118951FED36
:100080001DBF10E818B910E816BD13E016BD1FEF2C
:100090001BBB18BB12BB0ABA07BA01BABF98BD98FE
:1000A00018EA1DB910EF1EB910E215BF7894FFCF02
:1000B0001EB919E20ED01DB9769BFCCF0AD07FB1D4
:1000C00008951F93BD9810EFF3DF7F937F911F91E9
:1000D000089500000000000008951F930F931CE393
:1000E0000FEFF7DF0A95E9F70FEF1A95D1F70F91A8
:1000F0001F910895F2DFF1DFF0DFEFDFEEDF08950B
:10010000BE98BB98BC98C69AC39AC49A0895BE9AE2
:10011000C6980895BC9AC4980895BB9AC398089548
:10012000F6DFF8DF0895F3DFF8DF0895F3DFF5DF9A
:100130001F910895ECDFEEDFF0DF089516D0E7DFC2
:1001400017D013D0E7DF14D010D0E7DF11D00DD0D7
:10015000E7DF0ED00AD0E7DF0BD007D0E7DF08D00B
:1001600004D0E8DF05D0CCDF0895CADFC3DF0895EF
:10017000C1DF08951F9317B31875103011F0C0DF59
:1001800002C01A2D02D01F910895183061F1B8DF16
:10019000113069F0123079F0133089F0143099F091
:1001A0001530A9F01630B9F01730C9F00895AFDF57
:1001B00011E0A12E0895AEDF12E0A12E0895ADDF6B
:1001C00013E0A12E0895ACDF14E0A12E0895ABDF5B
:1001D00015E0A12E0895AADF16E0A12E0895AADF4A
:1001E00017E0A12E0895C6DF0895BA98B898B99877
:1001F000C29AC09AC19A0895BA9AC2980895B99AB3
:10020000C1980895B89AC0980895F6DFF8DF089568
:10021000F3DFF8DF0895F3DFF5DF0895EDDFEFDFBB
:10022000F1DF089516D0E8DF17D013D0E8DF14D03F
:1002300010D0E8DF11D00DD0E8DF0ED00AD0E8DF13
:100240000BD007D0E8DF08D004D0E8DF05D0CDDF41
:100250000895CBDF4FDF08954DDF08951F9317B347
:100260001770103011F0C1DF02C01B2D02D01F919A
:100270000895183061F1B9DF113069F0123079F06A
:10028000133089F0143099F01530A9F01630B9F018
:100290001730C9F00895B0DF11E0B12E0895AFDF37
:1002A00012E0B12E0895AEDF13E0B12E0895ADDF58
:1002B00014E0B12E0895ACDF15E0B12E0895ABDF48
:1002C00016E0B12E0895AADF17E0B12E0895C6DF1B
:1002D00008958C988E988D98949A969A959A0895E8
:1002E0008C9A949808958D9A959808958E9A9698D8
:1002F0000895F6DFF8DF0895F3DFF8DF0895F3DF00
:10030000F5DF0895EDDFEFDFF1DF089516D0E8DFC8
:1003100017D013D0E8DF14D010D0E8DF11D00DD003
:10032000E8DF0ED00AD0E8DF0BD007D0E8DF08D036
:1003300004D0E8DF05D0CDDF0895CBDFDBDE089504
:10034000D9DE08951F9311B31077103011F0C1DF7B
:1003500002C01C2D02D01F910895183061F1B9DF41
:10036000113069F0123079F0133089F0143099F0BF
:100370001530A9F01630B9F01730C9F00895B0DF84
:1003800011E0C12E0895AFDF12E0C12E0895AEDF57
:1003900013E0C12E0895ADDF14E0C12E0895ACDF47
:1003A00015E0C12E0895ABDF16E0C12E0895AADF37
:1003B00017E0C12E0895C6DF089589988B988A9812
:1003C000919A939A929A0895899A919808958A9AFF
:1003D000929808958B9A93980895F6DFF8DF089520
:1003E000F3DFF8DF0895F3DFF5DF0895EDDFEFDFEA
:1003F000F1DF089516D0E8DF17D013D0E8DF14D06E
:1004000010D0E8DF11D00DD0E8DF0ED00AD0E8DF41
:100410000BD007D0E8DF08D004D0E8DF05D0CDDF6F
:100420000895CBDF67DE089565DE08951F9311B34D
:100430001E70103011F0C1DF02C01D2D02D01F91BF
:100440000895183061F1B9DF113069F0123079F098
:10045000133089F0143099F01530A9F01630B9F046
:100460001730C9F00895B0DF11E0D12E0895AFDF45
:1004700012E0D12E0895AEDF13E0D12E0895ADDF46
:1004800014E0D12E0895ACDF15E0D12E0895ABDF36
:1004900016E0D12E0895AADF17E0D12E0895C6DF09
:1004A0000895D0988898D198D89A909AD99A089512
:1004B000D09AD8980895D19AD9980895889A909802
:1004C0000895F6DFF8DF0895F3DFF8DF0895F3DF2E
:1004D000F5DF0895EDDFEFDFF1DF089516D0E8DFF7
:1004E00017D013D0E8DF14D010D0E8DF11D00DD032
:1004F000E8DF0ED00AD0E8DF0BD007D0E8DF08D065
:1005000004D0E8DF05D0CDDF0895CBDFF3DD08951B
:10051000F1DD08951F930F931AB3137001B30170A7
:10052000100F103011F0BDDF02C01E2D03D00F914F
:100530001F910895183061F1B4DF113069F0123065
:1005400079F0133089F0143099F01530A9F0163095
:10055000B9F01730C9F00895ABDF11E0E12E08952E
:10056000AADF12E0E12E0895A9DF13E0E12E08953D
:10057000A8DF14E0E12E0895A7DF15E0E12E08952D
:10058000A6DF16E0E12E0895A5DF17E0E12E08951D
:04059000C1DF08952A
:00000001FF
